{
  "contractName": "CorporateLending",
  "abi": [
    {
      "inputs": [
        {
          "internalType": "address payable",
          "name": "bankAddr",
          "type": "address"
        },
        {
          "internalType": "address payable",
          "name": "clientAddr",
          "type": "address"
        },
        {
          "internalType": "uint256",
          "name": "loanVal",
          "type": "uint256"
        },
        {
          "internalType": "uint256",
          "name": "maturityVal",
          "type": "uint256"
        },
        {
          "internalType": "uint256",
          "name": "earningsVal",
          "type": "uint256"
        },
        {
          "internalType": "string",
          "name": "creditR",
          "type": "string"
        },
        {
          "internalType": "uint256",
          "name": "capitalVal",
          "type": "uint256"
        }
      ],
      "payable": false,
      "stateMutability": "nonpayable",
      "type": "constructor"
    },
    {
      "constant": true,
      "inputs": [],
      "name": "loanStatus",
      "outputs": [
        {
          "internalType": "string",
          "name": "",
          "type": "string"
        }
      ],
      "payable": false,
      "stateMutability": "view",
      "type": "function"
    },
    {
      "constant": false,
      "inputs": [],
      "name": "evaluateRiskAndCollateral",
      "outputs": [],
      "payable": false,
      "stateMutability": "nonpayable",
      "type": "function"
    },
    {
      "constant": false,
      "inputs": [],
      "name": "drawdown",
      "outputs": [],
      "payable": true,
      "stateMutability": "payable",
      "type": "function"
    },
    {
      "constant": false,
      "inputs": [],
      "name": "repay",
      "outputs": [],
      "payable": true,
      "stateMutability": "payable",
      "type": "function"
    },
    {
      "constant": false,
      "inputs": [],
      "name": "getLoanStatus",
      "outputs": [
        {
          "internalType": "string",
          "name": "",
          "type": "string"
        }
      ],
      "payable": false,
      "stateMutability": "nonpayable",
      "type": "function"
    },
    {
      "constant": false,
      "inputs": [],
      "name": "getRisk",
      "outputs": [
        {
          "internalType": "string",
          "name": "",
          "type": "string"
        }
      ],
      "payable": false,
      "stateMutability": "nonpayable",
      "type": "function"
    },
    {
      "constant": false,
      "inputs": [],
      "name": "getCollateral",
      "outputs": [
        {
          "internalType": "uint256",
          "name": "",
          "type": "uint256"
        }
      ],
      "payable": false,
      "stateMutability": "nonpayable",
      "type": "function"
    },
    {
      "constant": false,
      "inputs": [],
      "name": "getLoanAmount",
      "outputs": [
        {
          "internalType": "uint256",
          "name": "",
          "type": "uint256"
        }
      ],
      "payable": false,
      "stateMutability": "nonpayable",
      "type": "function"
    },
    {
      "constant": false,
      "inputs": [],
      "name": "getClientAddress",
      "outputs": [
        {
          "internalType": "address",
          "name": "",
          "type": "address"
        }
      ],
      "payable": false,
      "stateMutability": "nonpayable",
      "type": "function"
    }
  ],
  "bytecode": "0x60806040523480156200001157600080fd5b506040516200204238038062002042833981810160405260e08110156200003757600080fd5b810190808051906020019092919080519060200190929190805190602001909291908051906020019092919080519060200190929190805160405193929190846401000000008211156200008a57600080fd5b83820191506020820185811115620000a157600080fd5b8251866001820283011164010000000082111715620000bf57600080fd5b8083526020830192505050908051906020019080838360005b83811015620000f5578082015181840152602081019050620000d8565b50505050905090810190601f168015620001235780820380516001836020036101000a031916815260200191505b50604052602001805190602001909291905050506040518061010001604052806040518060400160405280600981526020017f494e49544941544544000000000000000000000000000000000000000000000081525081526020016040518060400160405280600981526020017f4556414c5541544544000000000000000000000000000000000000000000000081525081526020016040518060400160405280600681526020017f505249434544000000000000000000000000000000000000000000000000000081525081526020016040518060400160405280600681526020017f5349474e4544000000000000000000000000000000000000000000000000000081525081526020016040518060400160405280600681526020017f414354495645000000000000000000000000000000000000000000000000000081525081526020016040518060400160405280600681526020017f524550414944000000000000000000000000000000000000000000000000000081525081526020016040518060400160405280600b81526020017f464f5245434c4f5355524500000000000000000000000000000000000000000081525081526020016040518060400160405280600881526020017f52454a454354454400000000000000000000000000000000000000000000000081525081525060039060086200032b929190620006cd565b506040518060a001604052806040518060400160405280601881526020017f556e617574686f7269736564205472616e73616374696f6e000000000000000081525081526020016040518060600160405280602d815260200162001fbb602d913981526020016040518060600160405280603781526020016200200b60379139815260200160405180606001604052806023815260200162001fe86023913981526020016040518060400160405280601281526020017f5472616e73616374696f6e204661696c6564000000000000000000000000000081525081525060049060056200041a92919062000734565b50866000806101000a81548173ffffffffffffffffffffffffffffffffffffffff021916908373ffffffffffffffffffffffffffffffffffffffff16021790555085600160006101000a81548173ffffffffffffffffffffffffffffffffffffffff021916908373ffffffffffffffffffffffffffffffffffffffff160217905550620004bb85670de0b6b3a76400006200068f60201b6200149c1760201c565b6005819055506003600081548110620004d057fe5b9060005260206000200160029080546001816001161561010002031660029004620004fd9291906200079b565b5083600881905550600a600681905550600a6007819055506040518060a00160405280600160009054906101000a900473ffffffffffffffffffffffffffffffffffffffff1673ffffffffffffffffffffffffffffffffffffffff168152602001600081526020016040518060400160405280600781526020017f70656e64696e6700000000000000000000000000000000000000000000000000815250815260200160008152602001604051806060016040528084815260200185815260200186815250815250600960008201518160000160006101000a81548173ffffffffffffffffffffffffffffffffffffffff021916908373ffffffffffffffffffffffffffffffffffffffff1602179055506020820151816001015560408201518160020190805190602001906200063692919062000829565b50606082015181600301556080820151816004016000820151816000015560208201518160010190805190602001906200067292919062000829565b506040820151816002015550509050505050505050505062000955565b600080831415620006a45760009050620006c7565b6000828402905082848281620006b657fe5b0414620006c257600080fd5b809150505b92915050565b82805482825590600052602060002090810192821562000721579160200282015b82811115620007205782518290805190602001906200070f92919062000829565b5091602001919060010190620006ee565b5b509050620007309190620008b0565b5090565b82805482825590600052602060002090810192821562000788579160200282015b82811115620007875782518290805190602001906200077692919062000829565b509160200191906001019062000755565b5b509050620007979190620008b0565b5090565b828054600181600116156101000203166002900490600052602060002090601f016020900481019282601f10620007d6578054855562000816565b828001600101855582156200081657600052602060002091601f016020900482015b8281111562000815578254825591600101919060010190620007f8565b5b509050620008259190620008e1565b5090565b828054600181600116156101000203166002900490600052602060002090601f016020900481019282601f106200086c57805160ff19168380011785556200089d565b828001600101855582156200089d579182015b828111156200089c5782518255916020019190600101906200087f565b5b509050620008ac9190620008e1565b5090565b620008de91905b80821115620008da5760008181620008d0919062000909565b50600101620008b7565b5090565b90565b6200090691905b8082111562000902576000816000905550600101620008e8565b5090565b90565b50805460018160011615610100020316600290046000825580601f1062000931575062000952565b601f016020900490600052602060002090810190620009519190620008e1565b5b50565b61165680620009656000396000f3fe6080604052600436106100865760003560e01c8063970709b111610059578063970709b1146101e05780639ea6b4f4146101f7578063acc1ab131461024e578063e77ef21f146102de578063f4b01b18146102e857610086565b806302676d391461008b578063074ca9661461011b578063402d8883146101ab5780635c1548fb146101b5575b600080fd5b34801561009757600080fd5b506100a0610313565b6040518080602001828103825283818151815260200191508051906020019080838360005b838110156100e05780820151818401526020810190506100c5565b50505050905090810190601f16801561010d5780820380516001836020036101000a031916815260200191505b509250505060405180910390f35b34801561012757600080fd5b506101306103b8565b6040518080602001828103825283818151815260200191508051906020019080838360005b83811015610170578082015181840152602081019050610155565b50505050905090810190601f16801561019d5780820380516001836020036101000a031916815260200191505b509250505060405180910390f35b6101b3610456565b005b3480156101c157600080fd5b506101ca61079b565b6040518082815260200191505060405180910390f35b3480156101ec57600080fd5b506101f56107a8565b005b34801561020357600080fd5b5061020c610f75565b604051808273ffffffffffffffffffffffffffffffffffffffff1673ffffffffffffffffffffffffffffffffffffffff16815260200191505060405180910390f35b34801561025a57600080fd5b50610263610f9f565b6040518080602001828103825283818151815260200191508051906020019080838360005b838110156102a3578082015181840152602081019050610288565b50505050905090810190601f1680156102d05780820380516001836020036101000a031916815260200191505b509250505060405180910390f35b6102e6611041565b005b3480156102f457600080fd5b506102fd61136f565b6040518082815260200191505060405180910390f35b606060096002018054600181600116156101000203166002900480601f0160208091040260200160405190810160405280929190818152602001828054600181600116156101000203166002900480156103ae5780601f10610383576101008083540402835291602001916103ae565b820191906000526020600020905b81548152906001019060200180831161039157829003601f168201915b5050505050905090565b60028054600181600116156101000203166002900480601f01602080910402602001604051908101604052809291908181526020018280546001816001161561010002031660029004801561044e5780601f106104235761010080835404028352916020019161044e565b820191906000526020600020905b81548152906001019060200180831161043157829003601f168201915b505050505081565b6105aa60028054600181600116156101000203166002900480601f0160208091040260200160405190810160405280929190818152602001828054600181600116156101000203166002900480156104ef5780601f106104c4576101008083540402835291602001916104ef565b820191906000526020600020905b8154815290600101906020018083116104d257829003601f168201915b5050505050600360048154811061050257fe5b906000526020600020018054600181600116156101000203166002900480601f0160208091040260200160405190810160405280929190818152602001828054600181600116156101000203166002900480156105a05780601f10610575576101008083540402835291602001916105a0565b820191906000526020600020905b81548152906001019060200180831161058357829003601f168201915b5050505050611379565b80156106035750600160009054906101000a900473ffffffffffffffffffffffffffffffffffffffff1673ffffffffffffffffffffffffffffffffffffffff163373ffffffffffffffffffffffffffffffffffffffff16145b600460008154811061061157fe5b90600052602060002001906106de576040517f08c379a000000000000000000000000000000000000000000000000000000000815260040180806020018281038252838181546001816001161561010002031660029004815260200191508054600181600116156101000203166002900480156106cf5780601f106106a4576101008083540402835291602001916106cf565b820191906000526020600020905b8154815290600101906020018083116106b257829003601f168201915b50509250505060405180910390fd5b506000809054906101000a900473ffffffffffffffffffffffffffffffffffffffff1673ffffffffffffffffffffffffffffffffffffffff166108fc61073361072b60055460065461149c565b6005546114d6565b9081150290604051600060405180830381858888f1935050505015801561075e573d6000803e3d6000fd5b50600360058154811061076d57fe5b90600052602060002001600290805460018160011615610100020316600290046107989291906114f5565b50565b6000600960030154905090565b6108fc60028054600181600116156101000203166002900480601f0160208091040260200160405190810160405280929190818152602001828054600181600116156101000203166002900480156108415780601f1061081657610100808354040283529160200191610841565b820191906000526020600020905b81548152906001019060200180831161082457829003601f168201915b5050505050600360008154811061085457fe5b906000526020600020018054600181600116156101000203166002900480601f0160208091040260200160405190810160405280929190818152602001828054600181600116156101000203166002900480156108f25780601f106108c7576101008083540402835291602001916108f2565b820191906000526020600020905b8154815290600101906020018083116108d557829003601f168201915b5050505050611379565b801561095457506000809054906101000a900473ffffffffffffffffffffffffffffffffffffffff1673ffffffffffffffffffffffffffffffffffffffff163373ffffffffffffffffffffffffffffffffffffffff16145b600460008154811061096257fe5b9060005260206000200190610a2f576040517f08c379a00000000000000000000000000000000000000000000000000000000081526004018080602001828103825283818154600181600116156101000203166002900481526020019150805460018160011615610100020316600290048015610a205780601f106109f557610100808354040283529160200191610a20565b820191906000526020600020905b815481529060010190602001808311610a0357829003601f168201915b50509250505060405180910390fd5b506101f46009600401600001541015610a6057610a5260096001015460026114d6565b600960010181905550610a8d565b6103e86009600401600001541015610a8c57610a8260096001015460016114d6565b6009600101819055505b5b610b6c60096004016001018054600181600116156101000203166002900480601f016020809104026020016040519081016040528092919081815260200182805460018160011615610100020316600290048015610b2c5780601f10610b0157610100808354040283529160200191610b2c565b820191906000526020600020905b815481529060010190602001808311610b0f57829003601f168201915b50505050506040518060400160405280600181526020017f4200000000000000000000000000000000000000000000000000000000000000815250611379565b15610b8f57610b8160096001015460016114d6565b600960010181905550610d91565b610c6e60096004016001018054600181600116156101000203166002900480601f016020809104026020016040519081016040528092919081815260200182805460018160011615610100020316600290048015610c2e5780601f10610c0357610100808354040283529160200191610c2e565b820191906000526020600020905b815481529060010190602001808311610c1157829003601f168201915b50505050506040518060400160405280600181526020017f4300000000000000000000000000000000000000000000000000000000000000815250611379565b15610c9157610c8360096001015460026114d6565b600960010181905550610d90565b610d7060096004016001018054600181600116156101000203166002900480601f016020809104026020016040519081016040528092919081815260200182805460018160011615610100020316600290048015610d305780601f10610d0557610100808354040283529160200191610d30565b820191906000526020600020905b815481529060010190602001808311610d1357829003601f168201915b50505050506040518060400160405280600181526020017f4400000000000000000000000000000000000000000000000000000000000000815250611379565b15610d8f57610d8560096001015460036114d6565b6009600101819055505b5b5b60056009600401600201541015610dc057610db260096001015460026114d6565b600960010181905550610dec565b600a6009600401600201541015610deb57610de160096001015460016114d6565b6009600101819055505b5b60026009600101541015610e4e576040518060400160405280600381526020017f6c6f77000000000000000000000000000000000000000000000000000000000081525060096002019080519060200190610e4892919061157c565b50610f01565b60056009600101541015610eb0576040518060400160405280600681526020017f6d656469756d000000000000000000000000000000000000000000000000000081525060096002019080519060200190610eaa92919061157c565b50610f00565b6040518060400160405280600481526020017f686967680000000000000000000000000000000000000000000000000000000081525060096002019080519060200190610efe92919061157c565b505b5b610f31610f29610f1e610f17600654606461149c565b60016114d6565b60096001015461149c565b60075461149c565b60096003018190555060038081548110610f4757fe5b9060005260206000200160029080546001816001161561010002031660029004610f729291906114f5565b50565b6000600160009054906101000a900473ffffffffffffffffffffffffffffffffffffffff16905090565b606060028054600181600116156101000203166002900480601f0160208091040260200160405190810160405280929190818152602001828054600181600116156101000203166002900480156110375780601f1061100c57610100808354040283529160200191611037565b820191906000526020600020905b81548152906001019060200180831161101a57829003601f168201915b5050505050905090565b61119460028054600181600116156101000203166002900480601f0160208091040260200160405190810160405280929190818152602001828054600181600116156101000203166002900480156110da5780601f106110af576101008083540402835291602001916110da565b820191906000526020600020905b8154815290600101906020018083116110bd57829003601f168201915b5050505050600380815481106110ec57fe5b906000526020600020018054600181600116156101000203166002900480601f01602080910402602001604051908101604052809291908181526020018280546001816001161561010002031660029004801561118a5780601f1061115f5761010080835404028352916020019161118a565b820191906000526020600020905b81548152906001019060200180831161116d57829003601f168201915b5050505050611379565b80156111ec57506000809054906101000a900473ffffffffffffffffffffffffffffffffffffffff1673ffffffffffffffffffffffffffffffffffffffff163373ffffffffffffffffffffffffffffffffffffffff16145b60046000815481106111fa57fe5b90600052602060002001906112c7576040517f08c379a000000000000000000000000000000000000000000000000000000000815260040180806020018281038252838181546001816001161561010002031660029004815260200191508054600181600116156101000203166002900480156112b85780601f1061128d576101008083540402835291602001916112b8565b820191906000526020600020905b81548152906001019060200180831161129b57829003601f168201915b50509250505060405180910390fd5b50600160009054906101000a900473ffffffffffffffffffffffffffffffffffffffff1673ffffffffffffffffffffffffffffffffffffffff166108fc6005549081150290604051600060405180830381858888f19350505050158015611332573d6000803e3d6000fd5b50600360048154811061134157fe5b906000526020600020016002908054600181600116156101000203166002900461136c9291906114f5565b50565b6000600554905090565b6000816040516020018080602001828103825283818151815260200191508051906020019080838360005b838110156113bf5780820151818401526020810190506113a4565b50505050905090810190601f1680156113ec5780820380516001836020036101000a031916815260200191505b509250505060405160208183030381529060405280519060200120836040516020018080602001828103825283818151815260200191508051906020019080838360005b8381101561144b578082015181840152602081019050611430565b50505050905090810190601f1680156114785780820380516001836020036101000a031916815260200191505b50925050506040516020818303038152906040528051906020012014905092915050565b6000808314156114af57600090506114d0565b60008284029050828482816114c057fe5b04146114cb57600080fd5b809150505b92915050565b6000808284019050838110156114eb57600080fd5b8091505092915050565b828054600181600116156101000203166002900490600052602060002090601f016020900481019282601f1061152e578054855561156b565b8280016001018555821561156b57600052602060002091601f016020900482015b8281111561156a57825482559160010191906001019061154f565b5b50905061157891906115fc565b5090565b828054600181600116156101000203166002900490600052602060002090601f016020900481019282601f106115bd57805160ff19168380011785556115eb565b828001600101855582156115eb579182015b828111156115ea5782518255916020019190600101906115cf565b5b5090506115f891906115fc565b5090565b61161e91905b8082111561161a576000816000905550600101611602565b5090565b9056fea265627a7a723158208b4079d1993e01d7ad694c0df100aa13509823c0bca06bd5a7aad396d0196d7f64736f6c634300050c003256616c75652068617320746f206265207365742062656c6f772074686520536869706d656e742056616c75652e53656e742076616c756520646f6573206e6f7420657175616c20424f452056616c756556616c75652068617320746f20626520736574206174206c6561737420383025206f662074686520536869706d656e742056616c75652e",
  "source": "pragma solidity >=0.4.24;\r\n\r\nimport \"./SafeMath.sol\";\r\n\r\ncontract CorporateLending {\r\n    using SafeMath for uint256;\r\n\r\n    address payable bank;\r\n    address payable client;\r\n    string public loanStatus;\r\n    string[] loanStatusArray;\r\n    string[] errMsg;\r\n    uint256 loanValue;\r\n    uint256 interestRate;\r\n    uint256 stockPrice;\r\n    uint256 maturity;\r\n\r\n    Client clientObj;\r\n\r\n    struct BillOfExchange {\r\n        address holder;\r\n        uint256 optionPrice;\r\n    }\r\n\r\n    struct Client{\r\n        address addr;\r\n        uint256 risk;\r\n        string riskClass;\r\n        uint256 collateralVal;\r\n        KYC kyc;\r\n    }\r\n\r\n    struct KYC{\r\n        uint256 capital;\r\n        string creditRating;\r\n        uint256 earnings;\r\n    }\r\n\r\n\r\n    constructor( address payable bankAddr, address payable clientAddr, uint256 loanVal, uint256 maturityVal,\r\n        uint256 earningsVal, string memory creditR, uint256 capitalVal ) public {\r\n\r\n        loanStatusArray = [\"INITIATED\", \"EVALUATED\", \"PRICED\", \"SIGNED\", \"ACTIVE\", \"REPAID\", \"FORECLOSURE\", \"REJECTED\"];\r\n        errMsg = [\r\n                    \"Unauthorised Transaction\",                                 //errMsg[0]\r\n                    \"Value has to be set below the Shipment Value.\",            //errMsg[1]\r\n                    \"Value has to be set at least 80% of the Shipment Value.\",  //errMsg[2]\r\n                    \"Sent value does not equal BOE Value\",                 //errMsg[3]\r\n                    \"Transaction Failed\"                                        //errMsg[4]\r\n                    // NEW ERRORS, start with [5]\r\n                ];\r\n\r\n        bank = bankAddr;\r\n        client = clientAddr;\r\n        loanValue = SafeMath.mul(loanVal, 1 ether); // Stores ether value as wei\r\n        loanStatus = loanStatusArray[0];\r\n        maturity = maturityVal;\r\n\r\n        // Assume interest rate and stock price are derived from Oracle data source\r\n        interestRate = 10;\r\n        stockPrice = 10;\r\n\r\n\r\n        // Assume KYC is already done, so when the contract is initiated, the information will be automatically loaded\r\n        clientObj = Client({\r\n            addr: client,\r\n            risk: 0,\r\n            riskClass: \"pending\",\r\n            collateralVal: 0,\r\n            kyc: KYC({\r\n                capital: capitalVal,\r\n                creditRating: creditR,\r\n                earnings: earningsVal\r\n            })\r\n        });\r\n\r\n    }\r\n\r\n\r\n/*\r\n    Based on the information from KYC, stored in info object in Client, evaluate and set risk value\r\n*/\r\n    function evaluateRiskAndCollateral() public {\r\n        // Check if the risk is evaluated and the identity of the executor\r\n        require(equal(loanStatus,loanStatusArray[0]) && msg.sender == bank, errMsg[0]);\r\n\r\n        // Calculate risk based on the information from KYC\r\n        if(clientObj.kyc.capital < 500){\r\n            clientObj.risk = SafeMath.add(clientObj.risk,2);\r\n        } else if(clientObj.kyc.capital < 1000){\r\n            clientObj.risk = SafeMath.add(clientObj.risk,1);\r\n        }\r\n\r\n        if(equal(clientObj.kyc.creditRating, \"B\")){\r\n            clientObj.risk = SafeMath.add(clientObj.risk,1);\r\n        } else if(equal(clientObj.kyc.creditRating, \"C\")){\r\n            clientObj.risk = SafeMath.add(clientObj.risk,2);\r\n        } else if(equal(clientObj.kyc.creditRating, \"D\")){\r\n            clientObj.risk = SafeMath.add(clientObj.risk,3);\r\n        }\r\n\r\n        if(clientObj.kyc.earnings < 5){\r\n            clientObj.risk = SafeMath.add(clientObj.risk,2);\r\n        } else if(clientObj.kyc.earnings < 10){\r\n            clientObj.risk = SafeMath.add(clientObj.risk,1);\r\n        }\r\n\r\n        // Classify risk class\r\n        if(clientObj.risk < 2){\r\n            clientObj.riskClass = \"low\";\r\n        } else if(clientObj.risk < 5){\r\n            clientObj.riskClass = \"medium\";\r\n        } else{\r\n            clientObj.riskClass = \"high\";\r\n        }\r\n\r\n        // Calculate collateral\r\n        clientObj.collateralVal = SafeMath.mul(SafeMath.mul(SafeMath.add(SafeMath.mul(interestRate, 100), 1), clientObj.risk), stockPrice);\r\n\r\n        // Set state to SIGNED, because step \"PRICING\" and \"SIGN\" are skipped\r\n        loanStatus = loanStatusArray[3];\r\n    }\r\n\r\n    // function transactCollateral() public payable {\r\n    //     // require it to be client\r\n    //     require(equal(loanStatus,loanStatusArray[1]) && msg.sender == client, errMsg[0]);\r\n\r\n    //     // Instead of transact ether to the bank, our group decide to use real world collaterals\r\n    //     // bank.transfer(clientObj.collateralVal);\r\n\r\n    //     // Set the description of the collatra\r\n\r\n    // }\r\n\r\n    function drawdown() public payable{\r\n        require(equal(loanStatus,loanStatusArray[3]) && msg.sender == bank, errMsg[0]);\r\n        \r\n        // Loan drawdown - Transaction from bank to client\r\n        client.transfer(loanValue);\r\n\r\n        // set state to ACTIVE\r\n        loanStatus = loanStatusArray[4];\r\n    }\r\n\r\n\r\n    function repay() public payable{\r\n        require(equal(loanStatus,loanStatusArray[4]) && msg.sender == client, errMsg[0]);\r\n        // Repayment from client to bank\r\n        bank.transfer(SafeMath.add(SafeMath.mul(loanValue, interestRate), loanValue));\r\n\r\n        // set state to REPAID\r\n        loanStatus = loanStatusArray[5];\r\n    }\r\n\r\n    function getLoanStatus() public returns (string memory){\r\n        return loanStatus;\r\n    }\r\n\r\n    function getRisk() public returns (string memory){\r\n        return clientObj.riskClass;\r\n    }\r\n\r\n    function getCollateral() public returns (uint256){\r\n        return clientObj.collateralVal;\r\n    }\r\n\r\n    function getLoanAmount() public returns (uint256){\r\n        return loanValue;\r\n    }\r\n\r\n    function getClientAddress() public returns (address){\r\n        return client;\r\n    }\r\n\r\n    function equal(string memory _a, string memory _b) private pure returns (bool) {\r\n        return (keccak256(abi.encode(_a)) == keccak256(abi.encode(_b)));\r\n        //return keccak256(_a) == keccak256(_b);\r\n    }\r\n\r\n}",
  "sourcePath": "D:/SMU/Term7/blockchain/proj/corporate-lending/src/contracts/CorporateLending.sol",
  "compiler": {
    "name": "solc",
    "version": "0.5.12+commit.7709ece9.Emscripten.clang"
  },
  "schemaVersion": "3.0.19",
  "updatedAt": "2019-11-19T14:49:36.234Z",
  "networkType": "ethereum",
  "devdoc": {
    "methods": {}
  },
  "userdoc": {
    "methods": {}
  }
}