{
  "contractName": "CorporateLending",
  "abi": [
    {
      "inputs": [
        {
          "internalType": "address",
          "name": "bankAddr",
          "type": "address"
        },
        {
          "internalType": "address",
          "name": "clientAddr",
          "type": "address"
        },
        {
          "internalType": "uint256",
          "name": "loanVal",
          "type": "uint256"
        },
        {
          "internalType": "uint256",
          "name": "earningsVal",
          "type": "uint256"
        },
        {
          "internalType": "string",
          "name": "creditR",
          "type": "string"
        },
        {
          "internalType": "uint256",
          "name": "capitalVal",
          "type": "uint256"
        }
      ],
      "payable": false,
      "stateMutability": "nonpayable",
      "type": "constructor"
    },
    {
      "constant": true,
      "inputs": [],
      "name": "loanStatus",
      "outputs": [
        {
          "internalType": "string",
          "name": "",
          "type": "string"
        }
      ],
      "payable": false,
      "stateMutability": "view",
      "type": "function"
    },
    {
      "constant": false,
      "inputs": [],
      "name": "evaluateRiskAndCollateral",
      "outputs": [],
      "payable": false,
      "stateMutability": "nonpayable",
      "type": "function"
    },
    {
      "constant": false,
      "inputs": [],
      "name": "drawdown",
      "outputs": [],
      "payable": true,
      "stateMutability": "payable",
      "type": "function"
    },
    {
      "constant": false,
      "inputs": [],
      "name": "repay",
      "outputs": [],
      "payable": true,
      "stateMutability": "payable",
      "type": "function"
    },
    {
      "constant": false,
      "inputs": [],
      "name": "getLoanStatus",
      "outputs": [
        {
          "internalType": "string",
          "name": "",
          "type": "string"
        }
      ],
      "payable": false,
      "stateMutability": "nonpayable",
      "type": "function"
    },
    {
      "constant": false,
      "inputs": [],
      "name": "getRisk",
      "outputs": [
        {
          "internalType": "string",
          "name": "",
          "type": "string"
        }
      ],
      "payable": false,
      "stateMutability": "nonpayable",
      "type": "function"
    },
    {
      "constant": false,
      "inputs": [],
      "name": "getCollateral",
      "outputs": [
        {
          "internalType": "uint256",
          "name": "",
          "type": "uint256"
        }
      ],
      "payable": false,
      "stateMutability": "nonpayable",
      "type": "function"
    }
  ],
  "bytecode": "0x60806040523480156200001157600080fd5b5060405162001e5438038062001e54833981810160405260c08110156200003757600080fd5b8101908080519060200190929190805190602001909291908051906020019092919080519060200190929190805160405193929190846401000000008211156200008057600080fd5b838201915060208201858111156200009757600080fd5b8251866001820283011164010000000082111715620000b557600080fd5b8083526020830192505050908051906020019080838360005b83811015620000eb578082015181840152602081019050620000ce565b50505050905090810190601f168015620001195780820380516001836020036101000a031916815260200191505b50604052602001805190602001909291905050506040518061010001604052806040518060400160405280600981526020017f494e49544941544544000000000000000000000000000000000000000000000081525081526020016040518060400160405280600981526020017f4556414c5541544544000000000000000000000000000000000000000000000081525081526020016040518060400160405280600681526020017f505249434544000000000000000000000000000000000000000000000000000081525081526020016040518060400160405280600681526020017f5349474e4544000000000000000000000000000000000000000000000000000081525081526020016040518060400160405280600681526020017f414354495645000000000000000000000000000000000000000000000000000081525081526020016040518060400160405280600681526020017f524550414944000000000000000000000000000000000000000000000000000081525081526020016040518060400160405280600b81526020017f464f5245434c4f5355524500000000000000000000000000000000000000000081525081526020016040518060400160405280600881526020017f52454a454354454400000000000000000000000000000000000000000000000081525081525060039060086200032192919062000696565b506040518060a001604052806040518060400160405280601881526020017f556e617574686f7269736564205472616e73616374696f6e000000000000000081525081526020016040518060600160405280602d815260200162001dcd602d9139815260200160405180606001604052806037815260200162001e1d60379139815260200160405180606001604052806023815260200162001dfa6023913981526020016040518060400160405280601281526020017f5472616e73616374696f6e204661696c65640000000000000000000000000000815250815250600490600562000410929190620006fd565b50856000806101000a81548173ffffffffffffffffffffffffffffffffffffffff021916908373ffffffffffffffffffffffffffffffffffffffff16021790555084600160006101000a81548173ffffffffffffffffffffffffffffffffffffffff021916908373ffffffffffffffffffffffffffffffffffffffff160217905550620004b184670de0b6b3a76400006200065860201b620013041760201c565b6005819055506003600081548110620004c657fe5b9060005260206000200160029080546001816001161561010002031660029004620004f392919062000764565b50600a6006819055506103e86007819055506040518060a00160405280600160009054906101000a900473ffffffffffffffffffffffffffffffffffffffff1673ffffffffffffffffffffffffffffffffffffffff1681526020016000815260200160405180602001604052806000815250815260200160008152602001604051806060016040528084815260200185815260200186815250815250600860008201518160000160006101000a81548173ffffffffffffffffffffffffffffffffffffffff021916908373ffffffffffffffffffffffffffffffffffffffff16021790555060208201518160010155604082015181600201908051906020019062000600929190620007f2565b50606082015181600301556080820151816004016000820151816000015560208201518160010190805190602001906200063c929190620007f2565b506040820151816002015550509050505050505050506200091e565b6000808314156200066d576000905062000690565b60008284029050828482816200067f57fe5b04146200068b57600080fd5b809150505b92915050565b828054828255906000526020600020908101928215620006ea579160200282015b82811115620006e9578251829080519060200190620006d8929190620007f2565b5091602001919060010190620006b7565b5b509050620006f9919062000879565b5090565b82805482825590600052602060002090810192821562000751579160200282015b82811115620007505782518290805190602001906200073f929190620007f2565b50916020019190600101906200071e565b5b50905062000760919062000879565b5090565b828054600181600116156101000203166002900490600052602060002090601f016020900481019282601f106200079f5780548555620007df565b82800160010185558215620007df57600052602060002091601f016020900482015b82811115620007de578254825591600101919060010190620007c1565b5b509050620007ee9190620008aa565b5090565b828054600181600116156101000203166002900490600052602060002090601f016020900481019282601f106200083557805160ff191683800117855562000866565b8280016001018555821562000866579182015b828111156200086557825182559160200191906001019062000848565b5b509050620008759190620008aa565b5090565b620008a791905b80821115620008a35760008181620008999190620008d2565b5060010162000880565b5090565b90565b620008cf91905b80821115620008cb576000816000905550600101620008b1565b5090565b90565b50805460018160011615610100020316600290046000825580601f10620008fa57506200091b565b601f0160209004906000526020600020908101906200091a9190620008aa565b5b50565b61149f806200092e6000396000f3fe6080604052600436106100705760003560e01c80635c1548fb1161004e5780635c1548fb1461019f578063970709b1146101ca578063acc1ab13146101e1578063e77ef21f1461027157610070565b806302676d3914610075578063074ca96614610105578063402d888314610195575b600080fd5b34801561008157600080fd5b5061008a61027b565b6040518080602001828103825283818151815260200191508051906020019080838360005b838110156100ca5780820151818401526020810190506100af565b50505050905090810190601f1680156100f75780820380516001836020036101000a031916815260200191505b509250505060405180910390f35b34801561011157600080fd5b5061011a610320565b6040518080602001828103825283818151815260200191508051906020019080838360005b8381101561015a57808201518184015260208101905061013f565b50505050905090810190601f1680156101875780820380516001836020036101000a031916815260200191505b509250505060405180910390f35b61019d6103be565b005b3480156101ab57600080fd5b506101b4610683565b6040518082815260200191505060405180910390f35b3480156101d657600080fd5b506101df610690565b005b3480156101ed57600080fd5b506101f6610e5d565b6040518080602001828103825283818151815260200191508051906020019080838360005b8381101561023657808201518184015260208101905061021b565b50505050905090810190601f1680156102635780820380516001836020036101000a031916815260200191505b509250505060405180910390f35b610279610eff565b005b606060086002018054600181600116156101000203166002900480601f0160208091040260200160405190810160405280929190818152602001828054600181600116156101000203166002900480156103165780601f106102eb57610100808354040283529160200191610316565b820191906000526020600020905b8154815290600101906020018083116102f957829003601f168201915b5050505050905090565b60028054600181600116156101000203166002900480601f0160208091040260200160405190810160405280929190818152602001828054600181600116156101000203166002900480156103b65780601f1061038b576101008083540402835291602001916103b6565b820191906000526020600020905b81548152906001019060200180831161039957829003601f168201915b505050505081565b61051260028054600181600116156101000203166002900480601f0160208091040260200160405190810160405280929190818152602001828054600181600116156101000203166002900480156104575780601f1061042c57610100808354040283529160200191610457565b820191906000526020600020905b81548152906001019060200180831161043a57829003601f168201915b5050505050600360048154811061046a57fe5b906000526020600020018054600181600116156101000203166002900480601f0160208091040260200160405190810160405280929190818152602001828054600181600116156101000203166002900480156105085780601f106104dd57610100808354040283529160200191610508565b820191906000526020600020905b8154815290600101906020018083116104eb57829003601f168201915b50505050506111c2565b801561056b5750600160009054906101000a900473ffffffffffffffffffffffffffffffffffffffff1673ffffffffffffffffffffffffffffffffffffffff163373ffffffffffffffffffffffffffffffffffffffff16145b600460008154811061057957fe5b9060005260206000200190610646576040517f08c379a000000000000000000000000000000000000000000000000000000000815260040180806020018281038252838181546001816001161561010002031660029004815260200191508054600181600116156101000203166002900480156106375780601f1061060c57610100808354040283529160200191610637565b820191906000526020600020905b81548152906001019060200180831161061a57829003601f168201915b50509250505060405180910390fd5b50600360058154811061065557fe5b906000526020600020016002908054600181600116156101000203166002900461068092919061133e565b50565b6000600860030154905090565b6107e460028054600181600116156101000203166002900480601f0160208091040260200160405190810160405280929190818152602001828054600181600116156101000203166002900480156107295780601f106106fe57610100808354040283529160200191610729565b820191906000526020600020905b81548152906001019060200180831161070c57829003601f168201915b5050505050600360008154811061073c57fe5b906000526020600020018054600181600116156101000203166002900480601f0160208091040260200160405190810160405280929190818152602001828054600181600116156101000203166002900480156107da5780601f106107af576101008083540402835291602001916107da565b820191906000526020600020905b8154815290600101906020018083116107bd57829003601f168201915b50505050506111c2565b801561083c57506000809054906101000a900473ffffffffffffffffffffffffffffffffffffffff1673ffffffffffffffffffffffffffffffffffffffff163373ffffffffffffffffffffffffffffffffffffffff16145b600460008154811061084a57fe5b9060005260206000200190610917576040517f08c379a000000000000000000000000000000000000000000000000000000000815260040180806020018281038252838181546001816001161561010002031660029004815260200191508054600181600116156101000203166002900480156109085780601f106108dd57610100808354040283529160200191610908565b820191906000526020600020905b8154815290600101906020018083116108eb57829003601f168201915b50509250505060405180910390fd5b506101f460086004016000015410156109485761093a60086001015460026112e5565b600860010181905550610975565b6103e860086004016000015410156109745761096a60086001015460016112e5565b6008600101819055505b5b610a5460086004016001018054600181600116156101000203166002900480601f016020809104026020016040519081016040528092919081815260200182805460018160011615610100020316600290048015610a145780601f106109e957610100808354040283529160200191610a14565b820191906000526020600020905b8154815290600101906020018083116109f757829003601f168201915b50505050506040518060400160405280600181526020017f42000000000000000000000000000000000000000000000000000000000000008152506111c2565b15610a7757610a6960086001015460016112e5565b600860010181905550610c79565b610b5660086004016001018054600181600116156101000203166002900480601f016020809104026020016040519081016040528092919081815260200182805460018160011615610100020316600290048015610b165780601f10610aeb57610100808354040283529160200191610b16565b820191906000526020600020905b815481529060010190602001808311610af957829003601f168201915b50505050506040518060400160405280600181526020017f43000000000000000000000000000000000000000000000000000000000000008152506111c2565b15610b7957610b6b60086001015460026112e5565b600860010181905550610c78565b610c5860086004016001018054600181600116156101000203166002900480601f016020809104026020016040519081016040528092919081815260200182805460018160011615610100020316600290048015610c185780601f10610bed57610100808354040283529160200191610c18565b820191906000526020600020905b815481529060010190602001808311610bfb57829003601f168201915b50505050506040518060400160405280600181526020017f44000000000000000000000000000000000000000000000000000000000000008152506111c2565b15610c7757610c6d60086001015460036112e5565b6008600101819055505b5b5b60056008600401600201541015610ca857610c9a60086001015460026112e5565b600860010181905550610cd4565b600a6008600401600201541015610cd357610cc960086001015460016112e5565b6008600101819055505b5b60026008600101541015610d36576040518060400160405280600381526020017f6c6f77000000000000000000000000000000000000000000000000000000000081525060086002019080519060200190610d309291906113c5565b50610de9565b60056008600101541015610d98576040518060400160405280600681526020017f6d656469756d000000000000000000000000000000000000000000000000000081525060086002019080519060200190610d929291906113c5565b50610de8565b6040518060400160405280600481526020017f686967680000000000000000000000000000000000000000000000000000000081525060086002019080519060200190610de69291906113c5565b505b5b610e19610e11610e06610dff6006546064611304565b60016112e5565b600860010154611304565b600754611304565b60086003018190555060038081548110610e2f57fe5b9060005260206000200160029080546001816001161561010002031660029004610e5a92919061133e565b50565b606060028054600181600116156101000203166002900480601f016020809104026020016040519081016040528092919081815260200182805460018160011615610100020316600290048015610ef55780601f10610eca57610100808354040283529160200191610ef5565b820191906000526020600020905b815481529060010190602001808311610ed857829003601f168201915b5050505050905090565b61105260028054600181600116156101000203166002900480601f016020809104026020016040519081016040528092919081815260200182805460018160011615610100020316600290048015610f985780601f10610f6d57610100808354040283529160200191610f98565b820191906000526020600020905b815481529060010190602001808311610f7b57829003601f168201915b505050505060038081548110610faa57fe5b906000526020600020018054600181600116156101000203166002900480601f0160208091040260200160405190810160405280929190818152602001828054600181600116156101000203166002900480156110485780601f1061101d57610100808354040283529160200191611048565b820191906000526020600020905b81548152906001019060200180831161102b57829003601f168201915b50505050506111c2565b80156110aa57506000809054906101000a900473ffffffffffffffffffffffffffffffffffffffff1673ffffffffffffffffffffffffffffffffffffffff163373ffffffffffffffffffffffffffffffffffffffff16145b60046000815481106110b857fe5b9060005260206000200190611185576040517f08c379a000000000000000000000000000000000000000000000000000000000815260040180806020018281038252838181546001816001161561010002031660029004815260200191508054600181600116156101000203166002900480156111765780601f1061114b57610100808354040283529160200191611176565b820191906000526020600020905b81548152906001019060200180831161115957829003601f168201915b50509250505060405180910390fd5b50600360048154811061119457fe5b90600052602060002001600290805460018160011615610100020316600290046111bf92919061133e565b50565b6000816040516020018080602001828103825283818151815260200191508051906020019080838360005b838110156112085780820151818401526020810190506111ed565b50505050905090810190601f1680156112355780820380516001836020036101000a031916815260200191505b509250505060405160208183030381529060405280519060200120836040516020018080602001828103825283818151815260200191508051906020019080838360005b83811015611294578082015181840152602081019050611279565b50505050905090810190601f1680156112c15780820380516001836020036101000a031916815260200191505b50925050506040516020818303038152906040528051906020012014905092915050565b6000808284019050838110156112fa57600080fd5b8091505092915050565b6000808314156113175760009050611338565b600082840290508284828161132857fe5b041461133357600080fd5b809150505b92915050565b828054600181600116156101000203166002900490600052602060002090601f016020900481019282601f1061137757805485556113b4565b828001600101855582156113b457600052602060002091601f016020900482015b828111156113b3578254825591600101919060010190611398565b5b5090506113c19190611445565b5090565b828054600181600116156101000203166002900490600052602060002090601f016020900481019282601f1061140657805160ff1916838001178555611434565b82800160010185558215611434579182015b82811115611433578251825591602001919060010190611418565b5b5090506114419190611445565b5090565b61146791905b8082111561146357600081600090555060010161144b565b5090565b9056fea265627a7a723158201dbc761f05faf68b2bc2cf107ffd6099ba2f72ff399679390ec753cb1ca8024b64736f6c634300050c003256616c75652068617320746f206265207365742062656c6f772074686520536869706d656e742056616c75652e53656e742076616c756520646f6573206e6f7420657175616c20424f452056616c756556616c75652068617320746f20626520736574206174206c6561737420383025206f662074686520536869706d656e742056616c75652e",
  "source": "pragma solidity >=0.4.24;\r\n\r\nimport \"./SafeMath.sol\";\r\n\r\n/*\r\nThis set of code is to depict the transaction of goods from the exporter, shipper & importer\r\n*/\r\ncontract CorporateLending {\r\n    using SafeMath for uint256;\r\n\r\n    address bank;\r\n    address client;\r\n    string public loanStatus;\r\n    string[] loanStatusArray;\r\n    string[] errMsg;\r\n    uint256 loanValue;\r\n    uint256 interestRate;\r\n    uint256 stockPrice; \r\n\r\n    Client clientObj;\r\n\r\n    struct BillOfExchange {\r\n        address holder;\r\n        uint256 optionPrice;\r\n    }\r\n\r\n    struct Client{\r\n        address addr;\r\n        uint256 risk;\r\n        string riskClass;\r\n        uint256 collateralVal;\r\n        KYC kyc;\r\n    }\r\n\r\n    struct KYC{\r\n        uint256 capital;\r\n        string creditRating;\r\n        uint256 earnings;\r\n    }\r\n\r\n\r\n    constructor( address bankAddr, address clientAddr, uint256 loanVal,\r\n        uint256 earningsVal, string memory creditR, uint256 capitalVal ) public {\r\n\r\n        loanStatusArray = [\"INITIATED\", \"EVALUATED\", \"PRICED\", \"SIGNED\", \"ACTIVE\", \"REPAID\", \"FORECLOSURE\", \"REJECTED\"];\r\n        errMsg = [\r\n                    \"Unauthorised Transaction\",                                 //errMsg[0]\r\n                    \"Value has to be set below the Shipment Value.\",            //errMsg[1]\r\n                    \"Value has to be set at least 80% of the Shipment Value.\",  //errMsg[2]\r\n                    \"Sent value does not equal BOE Value\",                 //errMsg[3]\r\n                    \"Transaction Failed\"                                        //errMsg[4]\r\n                    // NEW ERRORS, start with [5]\r\n                ];\r\n\r\n        bank = bankAddr;\r\n        client = clientAddr;\r\n        loanValue = SafeMath.mul(loanVal, 1 ether); // Stores ether value as wei\r\n        loanStatus = loanStatusArray[0];\r\n\r\n        // Assume interest rate and stock price are derived from Oracle data source\r\n        interestRate = 10;\r\n        stockPrice = 1000;\r\n\r\n\r\n        // Assume KYC is already done, so when the contract is initiated, the information will be automatically loaded\r\n        clientObj = Client({\r\n            addr: client,\r\n            risk: 0,\r\n            riskClass: \"\",\r\n            collateralVal: 0,\r\n            kyc: KYC({\r\n                capital: capitalVal,\r\n                creditRating: creditR,\r\n                earnings: earningsVal\r\n            })\r\n        });\r\n\r\n    }\r\n\r\n\r\n/*\r\n    Based on the information from KYC, stored in info object in Client, evaluate and set risk value\r\n*/\r\n    function evaluateRiskAndCollateral() public {\r\n        // Check if the risk is evaluated and the identity of the executor\r\n        require(equal(loanStatus,loanStatusArray[0]) && msg.sender == bank, errMsg[0]);\r\n\r\n        // Calculate risk based on the information from KYC\r\n        if(clientObj.kyc.capital < 500){\r\n            clientObj.risk = SafeMath.add(clientObj.risk,2);\r\n        } else if(clientObj.kyc.capital < 1000){\r\n            clientObj.risk = SafeMath.add(clientObj.risk,1);\r\n        }\r\n\r\n        if(equal(clientObj.kyc.creditRating, \"B\")){\r\n            clientObj.risk = SafeMath.add(clientObj.risk,1);\r\n        } else if(equal(clientObj.kyc.creditRating, \"C\")){\r\n            clientObj.risk = SafeMath.add(clientObj.risk,2);\r\n        } else if(equal(clientObj.kyc.creditRating, \"D\")){\r\n            clientObj.risk = SafeMath.add(clientObj.risk,3);\r\n        }\r\n\r\n        if(clientObj.kyc.earnings < 5){\r\n            clientObj.risk = SafeMath.add(clientObj.risk,2);\r\n        } else if(clientObj.kyc.earnings < 10){\r\n            clientObj.risk = SafeMath.add(clientObj.risk,1);\r\n        }\r\n\r\n        // Classify risk class\r\n        if(clientObj.risk < 2){\r\n            clientObj.riskClass = \"low\";\r\n        } else if(clientObj.risk < 5){\r\n            clientObj.riskClass = \"medium\";\r\n        } else{\r\n            clientObj.riskClass = \"high\";\r\n        }\r\n\r\n        // Calculate collateral\r\n        clientObj.collateralVal = SafeMath.mul(SafeMath.mul(SafeMath.add(SafeMath.mul(interestRate, 100), 1), clientObj.risk), stockPrice);\r\n\r\n        // Set state to SIGNED, because step \"PRICING\" and \"SIGN\" are skipped\r\n        loanStatus = loanStatusArray[3];\r\n    }\r\n    function drawdown() public payable{\r\n        require(equal(loanStatus,loanStatusArray[3]) && msg.sender == bank, errMsg[0]);\r\n        // Loan drawdown - Transaction from bank to client\r\n\r\n\r\n        // Transaction of collateral from client to bank\r\n\r\n\r\n        // set state to ACTIVE\r\n        loanStatus = loanStatusArray[4];\r\n    }\r\n\r\n\r\n    function repay() public payable{\r\n        require(equal(loanStatus,loanStatusArray[4]) && msg.sender == client, errMsg[0]);\r\n        // Repayment from client to bank\r\n\r\n\r\n        // set state to REPAID\r\n        loanStatus = loanStatusArray[5];\r\n    }\r\n\r\n    function getLoanStatus() public returns (string memory){\r\n        return loanStatus;\r\n    }\r\n\r\n    function getRisk() public returns (string memory){\r\n        return clientObj.riskClass;\r\n    }\r\n\r\n    function getCollateral() public returns (uint256){\r\n        return clientObj.collateralVal;\r\n    }\r\n\r\n\r\n    function equal(string memory _a, string memory _b) private pure returns (bool) {\r\n        return (keccak256(abi.encode(_a)) == keccak256(abi.encode(_b)));\r\n        //return keccak256(_a) == keccak256(_b);\r\n    }\r\n\r\n}",
  "sourcePath": "D:/SMU/Term7/blockchain/proj/corporate-lending/src/contracts/CorporateLending.sol",
  "compiler": {
    "name": "solc",
    "version": "0.5.12+commit.7709ece9.Emscripten.clang"
  },
  "schemaVersion": "3.0.19",
  "updatedAt": "2019-11-19T08:46:31.086Z",
  "devdoc": {
    "methods": {}
  },
  "userdoc": {
    "methods": {}
  }
}