{
  "contractName": "MetaCoin",
  "abi": [
    {
      "inputs": [],
      "payable": false,
      "stateMutability": "nonpayable",
      "type": "constructor"
    },
    {
      "constant": true,
      "inputs": [
        {
          "internalType": "address",
          "name": "",
          "type": "address"
        }
      ],
      "name": "balances",
      "outputs": [
        {
          "internalType": "uint256",
          "name": "",
          "type": "uint256"
        }
      ],
      "payable": false,
      "stateMutability": "view",
      "type": "function"
    }
  ],
  "bytecode": "0x608060405234801561001057600080fd5b5060016000803273ffffffffffffffffffffffffffffffffffffffff1673ffffffffffffffffffffffffffffffffffffffff1681526020019081526020016000208190555060cf806100636000396000f3fe6080604052348015600f57600080fd5b506004361060285760003560e01c806327e235e314602d575b600080fd5b606c60048036036020811015604157600080fd5b81019080803573ffffffffffffffffffffffffffffffffffffffff1690602001909291905050506082565b6040518082815260200191505060405180910390f35b6000602052806000526040600020600091509050548156fea265627a7a72315820d623afd541331ca2b55489741420ad778b39aef436037fba2205350a8815623e64736f6c634300050c0032",
  "source": "pragma solidity ^0.5.0;\r\n\r\n\r\ncontract MetaCoin {\r\n\tmapping (address => uint) public balances;\r\n\r\n\tconstructor() public {\r\n\t\tbalances[tx.origin] = 1;\r\n\t}\r\n}",
  "sourcePath": "D:/SMU/Term7/blockchain/proj/corporate-lending/src/contracts/Metacoin.sol",
  "compiler": {
    "name": "solc",
    "version": "0.5.12+commit.7709ece9.Emscripten.clang"
  },
  "schemaVersion": "3.0.19",
  "updatedAt": "2019-11-19T08:46:31.092Z",
  "devdoc": {
    "methods": {}
  },
  "userdoc": {
    "methods": {}
  }
}